{"abi":[{"type":"constructor","inputs":[],"stateMutability":"nonpayable"},{"type":"function","name":"ROOT_HISTORY_SIZE","inputs":[],"outputs":[{"name":"","type":"uint32","internalType":"uint32"}],"stateMutability":"view"},{"type":"function","name":"admin","inputs":[],"outputs":[{"name":"","type":"address","internalType":"address"}],"stateMutability":"view"},{"type":"function","name":"batchVote","inputs":[{"name":"proofs","type":"bytes[]","internalType":"bytes[]"},{"name":"publicInputs","type":"bytes32[][]","internalType":"bytes32[][]"}],"outputs":[],"stateMutability":"nonpayable"},{"type":"function","name":"binaryIMTData","inputs":[],"outputs":[{"name":"depth","type":"uint256","internalType":"uint256"},{"name":"root","type":"uint256","internalType":"uint256"},{"name":"numberOfLeaves","type":"uint256","internalType":"uint256"},{"name":"useDefaultZeroes","type":"bool","internalType":"bool"}],"stateMutability":"view"},{"type":"function","name":"createProof","inputs":[{"name":"leafIndex","type":"uint256","internalType":"uint256"}],"outputs":[{"name":"proofSiblings","type":"uint256[]","internalType":"uint256[]"},{"name":"proofPathIndices","type":"uint8[]","internalType":"uint8[]"}],"stateMutability":"view"},{"type":"function","name":"createProposal","inputs":[{"name":"username","type":"string","internalType":"string"},{"name":"description","type":"string","internalType":"string"},{"name":"data","type":"bytes","internalType":"bytes"}],"outputs":[],"stateMutability":"nonpayable"},{"type":"function","name":"currentProposalId","inputs":[],"outputs":[{"name":"","type":"uint256","internalType":"uint256"}],"stateMutability":"view"},{"type":"function","name":"currentRootIndex","inputs":[],"outputs":[{"name":"","type":"uint32","internalType":"uint32"}],"stateMutability":"view"},{"type":"function","name":"getCredentialId","inputs":[{"name":"username","type":"string","internalType":"string"}],"outputs":[{"name":"","type":"tuple","internalType":"struct UserInfo","components":[{"name":"userAddress","type":"address","internalType":"address"},{"name":"username","type":"string","internalType":"string"},{"name":"commitment","type":"uint256","internalType":"uint256"},{"name":"commitmentId","type":"uint256","internalType":"uint256"},{"name":"isAuthenticated","type":"bool","internalType":"bool"}]}],"stateMutability":"view"},{"type":"function","name":"getCurrentRoot","inputs":[],"outputs":[{"name":"","type":"uint256","internalType":"uint256"}],"stateMutability":"view"},{"type":"function","name":"getVoteStatus","inputs":[{"name":"proposalId","type":"uint256","internalType":"uint256"}],"outputs":[{"name":"","type":"tuple","internalType":"struct Proposal","components":[{"name":"description","type":"string","internalType":"string"},{"name":"voteCount","type":"uint256","internalType":"uint256"},{"name":"votesFor","type":"uint256","internalType":"uint256"},{"name":"votesAgainst","type":"uint256","internalType":"uint256"},{"name":"createdAt","type":"uint256","internalType":"uint256"},{"name":"isAccepted","type":"bool","internalType":"bool"},{"name":"data","type":"bytes","internalType":"bytes"}]}],"stateMutability":"view"},{"type":"function","name":"hash","inputs":[{"name":"x","type":"uint256","internalType":"uint256"},{"name":"y","type":"uint256","internalType":"uint256"}],"outputs":[{"name":"","type":"uint256","internalType":"uint256"}],"stateMutability":"pure"},{"type":"function","name":"insert","inputs":[{"name":"leaf","type":"uint256","internalType":"uint256"}],"outputs":[{"name":"","type":"uint256","internalType":"uint256"},{"name":"","type":"uint256","internalType":"uint256"}],"stateMutability":"nonpayable"},{"type":"function","name":"isValidRoot","inputs":[{"name":"root","type":"uint256","internalType":"uint256"}],"outputs":[{"name":"","type":"bool","internalType":"bool"}],"stateMutability":"view"},{"type":"function","name":"lastSubtrees","inputs":[{"name":"index","type":"uint256","internalType":"uint256"}],"outputs":[{"name":"","type":"uint256[2]","internalType":"uint256[2]"}],"stateMutability":"view"},{"type":"function","name":"nextIndex","inputs":[],"outputs":[{"name":"","type":"uint32","internalType":"uint32"}],"stateMutability":"view"},{"type":"function","name":"nulifierHashes","inputs":[{"name":"nulifierHashes","type":"uint256","internalType":"uint256"},{"name":"proposalId","type":"uint256","internalType":"uint256"}],"outputs":[{"name":"","type":"bool","internalType":"bool"}],"stateMutability":"view"},{"type":"function","name":"proposals","inputs":[{"name":"proposalId","type":"uint256","internalType":"uint256"}],"outputs":[{"name":"description","type":"string","internalType":"string"},{"name":"voteCount","type":"uint256","internalType":"uint256"},{"name":"votesFor","type":"uint256","internalType":"uint256"},{"name":"votesAgainst","type":"uint256","internalType":"uint256"},{"name":"createdAt","type":"uint256","internalType":"uint256"},{"name":"isAccepted","type":"bool","internalType":"bool"},{"name":"data","type":"bytes","internalType":"bytes"}],"stateMutability":"view"},{"type":"function","name":"registerMultipleUsers","inputs":[{"name":"usernames","type":"string[]","internalType":"string[]"},{"name":"addresses","type":"address[]","internalType":"address[]"},{"name":"commitments","type":"uint256[]","internalType":"uint256[]"}],"outputs":[{"name":"leafIndices","type":"uint256[]","internalType":"uint256[]"}],"stateMutability":"nonpayable"},{"type":"function","name":"registerUser","inputs":[{"name":"username","type":"string","internalType":"string"}],"outputs":[],"stateMutability":"nonpayable"},{"type":"function","name":"requestRegistration","inputs":[{"name":"username","type":"string","internalType":"string"},{"name":"commitment","type":"uint256","internalType":"uint256"}],"outputs":[],"stateMutability":"nonpayable"},{"type":"function","name":"roots","inputs":[{"name":"","type":"uint256","internalType":"uint256"}],"outputs":[{"name":"","type":"uint256","internalType":"uint256"}],"stateMutability":"view"},{"type":"function","name":"setVerifier","inputs":[{"name":"verifierAddress","type":"address","internalType":"address"}],"outputs":[],"stateMutability":"nonpayable"},{"type":"function","name":"userData","inputs":[{"name":"username","type":"string","internalType":"string"}],"outputs":[{"name":"userAddress","type":"address","internalType":"address"},{"name":"username","type":"string","internalType":"string"},{"name":"commitment","type":"uint256","internalType":"uint256"},{"name":"commitmentId","type":"uint256","internalType":"uint256"},{"name":"isAuthenticated","type":"bool","internalType":"bool"}],"stateMutability":"view"},{"type":"function","name":"verifier","inputs":[],"outputs":[{"name":"","type":"address","internalType":"contract UltraVerifier"}],"stateMutability":"view"},{"type":"function","name":"verifyLeaf","inputs":[{"name":"leaf","type":"uint256","internalType":"uint256"},{"name":"proofSiblings","type":"uint256[]","internalType":"uint256[]"},{"name":"proofPathIndices","type":"uint8[]","internalType":"uint8[]"}],"outputs":[{"name":"","type":"bool","internalType":"bool"}],"stateMutability":"view"},{"type":"function","name":"vote","inputs":[{"name":"proof","type":"bytes","internalType":"bytes"},{"name":"publicInputs","type":"bytes32[]","internalType":"bytes32[]"}],"outputs":[],"stateMutability":"nonpayable"},{"type":"event","name":"ProposalCreated","inputs":[{"name":"proposalId","type":"uint256","indexed":false,"internalType":"uint256"}],"anonymous":false},{"type":"event","name":"ProposalVoted","inputs":[{"name":"proposalId","type":"uint256","indexed":false,"internalType":"uint256"},{"name":"voteType","type":"uint256","indexed":false,"internalType":"uint256"}],"anonymous":false},{"type":"event","name":"UserRegistered","inputs":[{"name":"username","type":"string","indexed":false,"internalType":"string"}],"anonymous":false},{"type":"event","name":"UsersRegistered","inputs":[{"name":"leafIndices","type":"uint256[]","indexed":false,"internalType":"uint256[]"}],"anonymous":false},{"type":"error","name":"DepthNotSupported","inputs":[]},{"type":"error","name":"LeafIndexOutOfRange","inputs":[]},{"type":"error","name":"TreeIsFull","inputs":[]},{"type":"error","name":"ValueGreaterThanSnarkScalarField","inputs":[]},{"type":"error","name":"WrongDefaultZeroIndex","inputs":[]},{"type":"error","name":"WrongMerkleProofPath","inputs":[]}],"bytecode":{"object":"0x6080604052600780546001600160401b031916905534801562000020575f80fd5b506200002f5f60208162000047565b600c80546001600160a01b03191633179055620001cb565b7f30644e72e131a029b85045b68181585d2833e84879b9709143e1f593f00000018110620000885760405163461b9c6d60e11b815260040160405180910390fd5b811580620000965750602082115b15620000b55760405163362b442760e21b815260040160405180910390fd5b8183555f5b828160ff161015620001745760ff81165f908152600385016020908152604091829020849055815180830183528481529081018490529051632b0aac7f60e11b815273__$2504d81e148ed52e54ab9b5ee76910cf06$__9163561558fe9162000127919060040162000181565b602060405180830381865af415801562000143573d5f803e3d5ffd5b505050506040513d601f19601f82011682018060405250810190620001699190620001b3565b9150600101620000ba565b5060019092019190915550565b6040810181835f5b6002811015620001aa57815183526020928301929091019060010162000189565b50505092915050565b5f60208284031215620001c4575f80fd5b5051919050565b61392f80620001d95f395ff3fe608060405234801561000f575f80fd5b50600436106101a1575f3560e01c80638270482d116100f3578063cd87a3b411610093578063f851a4401161006e578063f851a4401461045e578063fc57a5a714610471578063fc7e9c6f14610495578063feac729d146104ad575f80fd5b8063cd87a3b414610422578063e4387ec31461042a578063f20a495c1461044b575f80fd5b80639f9a6228116100ce5780639f9a6228146103a3578063a78dac0d146103dd578063b66bfb5f146103f0578063c2b40ae414610403575f80fd5b80638270482d1461033057806390b5561d1461035657806390eeb02b1461037e575f80fd5b80632cfca6ac1161015e5780635d085577116101395780635d085577146102bd57806367f074ff146102ea5780636fc97643146102fd578063704f1b941461031d575f80fd5b80632cfca6ac1461026a5780634706dcb81461028a5780635437988d146102aa575f80fd5b8063013cf08b146101a55780630519bb83146101d45780631257fb7d146101f45780631bd62a0e146102095780632b7ac3f31461021c5780632cdabbce14610247575b5f80fd5b6101b86101b3366004612c02565b6104b6565b6040516101cb9796959493929190612c66565b60405180910390f35b6101e76101e2366004612c02565b610607565b6040516101cb9190612cb8565b610207610202366004612e6b565b6107bd565b005b610207610217366004612f44565b610aca565b600d5461022f906001600160a01b031681565b6040516001600160a01b0390911681526020016101cb565b61025a610255366004612c02565b610ec9565b60405190151581526020016101cb565b61027d610278366004613005565b610f5c565b6040516101cb9190613036565b61029d61029836600461310d565b6110d9565b6040516101cb9190613234565b6102076102b836600461324d565b611471565b61025a6102cb366004613266565b600b60209081525f928352604080842090915290825290205460ff1681565b6102076102f8366004613286565b6114bd565b61031061030b366004612c02565b611666565b6040516101cb91906132c7565b61020761032b366004613005565b6116ac565b60075463ffffffff165f908152600660205260409020545b6040519081526020016101cb565b610369610364366004612c02565b6118e1565b604080519283526020830191909152016101cb565b60075461038e9063ffffffff1681565b60405163ffffffff90911681526020016101cb565b5f546001546002546005546103bb9392919060ff1684565b60408051948552602085019390935291830152151560608201526080016101cb565b6103486103eb366004613266565b611921565b6102076103fe3660046132f7565b6119b4565b610348610411366004612c02565b60066020525f908152604090205481565b61038e602081565b61043d610438366004612c02565b611be8565b6040516101cb92919061336e565b61025a610459366004613406565b611bf5565b600c5461022f906001600160a01b031681565b61048461047f366004613005565b611c0e565b6040516101cb959493929190613479565b60075461038e90640100000000900463ffffffff1681565b610348600a5481565b60096020525f90815260409020805481906104d0906134bb565b80601f01602080910402602001604051908101604052809291908181526020018280546104fc906134bb565b80156105475780601f1061051e57610100808354040283529160200191610547565b820191905f5260205f20905b81548152906001019060200180831161052a57829003601f168201915b505050505090806001015490806002015490806003015490806004015490806005015f9054906101000a900460ff1690806006018054610586906134bb565b80601f01602080910402602001604051908101604052809291908181526020018280546105b2906134bb565b80156105fd5780601f106105d4576101008083540402835291602001916105fd565b820191905f5260205f20905b8154815290600101906020018083116105e057829003601f168201915b5050505050905087565b6106446040518060e00160405280606081526020015f81526020015f81526020015f81526020015f81526020015f15158152602001606081525090565b5f8281526009602052604090819020815160e0810190925280548290829061066b906134bb565b80601f0160208091040260200160405190810160405280929190818152602001828054610697906134bb565b80156106e25780601f106106b9576101008083540402835291602001916106e2565b820191905f5260205f20905b8154815290600101906020018083116106c557829003601f168201915b505050918352505060018201546020820152600282015460408201526003820154606082015260048201546080820152600582015460ff16151560a082015260068201805460c090920191610736906134bb565b80601f0160208091040260200160405190810160405280929190818152602001828054610762906134bb565b80156107ad5780601f10610784576101008083540402835291602001916107ad565b820191905f5260205f20905b81548152906001019060200180831161079057829003601f168201915b5050505050815250509050919050565b600d54604051633a94343960e21b81526001600160a01b039091169063ea50d0e4906107ef90859085906004016134ed565b602060405180830381865afa15801561080a573d5f803e3d5ffd5b505050506040513d601f19601f8201168201806040525081019061082e9190613535565b61086f5760405162461bcd60e51b815260206004820152600d60248201526c24b73b30b634b210383937b7b360991b60448201526064015b60405180910390fd5b5f815f8151811061088257610882613554565b60200260200101515f1c90505f826001815181106108a2576108a2613554565b60200260200101515f1c90505f836002815181106108c2576108c2613554565b60200260200101515f1c90505f846003815181106108e2576108e2613554565b60200260200101515f1c90506108f784610ec9565b6109325760405162461bcd60e51b815260206004820152600c60248201526b125b9d985b1a59081c9bdbdd60a21b6044820152606401610866565b5f838152600b6020908152604080832085845290915290205460ff16156109935760405162461bcd60e51b8152602060048201526015602482015274139d5b1a599a595c88185b1c9958591e481d5cd959605a1b6044820152606401610866565b5f82815260096020526040812080546109ab906134bb565b9050116109ef5760405162461bcd60e51b8152602060048201526012602482015271141c9bdc1bdcd85b081b9bdd08199bdd5b9960721b6044820152606401610866565b5f838152600b602090815260408083208584528252808320805460ff191660019081179091556009909252822001805491610a298361357c565b919050555080600103610a62575f828152600960205260408120600201805460019290610a57908490613594565b90915550610a899050565b5f828152600960205260408120600301805460019290610a83908490613594565b90915550505b60408051838152602081018390527fd9269f7270bc5664a2191e6eb8966494c9525a450c09c958895c80de0b2d926d910160405180910390a1505050505050565b8051825114610b0f5760405162461bcd60e51b81526020600482015260116024820152704d69736d61746368656420696e7075747360781b6044820152606401610866565b5f5b8251811015610ec4575f828281518110610b2d57610b2d613554565b60200260200101515f81518110610b4657610b46613554565b60200260200101515f1c90505f838381518110610b6557610b65613554565b6020026020010151600181518110610b7f57610b7f613554565b60200260200101515f1c90505f848481518110610b9e57610b9e613554565b6020026020010151600281518110610bb857610bb8613554565b60200260200101515f1c90505f858581518110610bd757610bd7613554565b6020026020010151600381518110610bf157610bf1613554565b6020908102919091010151600d5488519192506001600160a01b03169063ea50d0e490899088908110610c2657610c26613554565b6020026020010151888881518110610c4057610c40613554565b60200260200101516040518363ffffffff1660e01b8152600401610c659291906134ed565b602060405180830381865afa158015610c80573d5f803e3d5ffd5b505050506040513d601f19601f82011682018060405250810190610ca49190613535565b610ce05760405162461bcd60e51b815260206004820152600d60248201526c24b73b30b634b210383937b7b360991b6044820152606401610866565b610ce984610ec9565b610d245760405162461bcd60e51b815260206004820152600c60248201526b125b9d985b1a59081c9bdbdd60a21b6044820152606401610866565b5f838152600b6020908152604080832085845290915290205460ff1615610d855760405162461bcd60e51b8152602060048201526015602482015274139d5b1a599a595c88185b1c9958591e481d5cd959605a1b6044820152606401610866565b5f8281526009602052604081208054610d9d906134bb565b905011610de15760405162461bcd60e51b8152602060048201526012602482015271141c9bdc1bdcd85b081b9bdd08199bdd5b9960721b6044820152606401610866565b5f838152600b602090815260408083208584528252808320805460ff191660019081179091556009909252822001805491610e1b8361357c565b919050555080600103610e54575f828152600960205260408120600201805460019290610e49908490613594565b90915550610e7b9050565b5f828152600960205260408120600301805460019290610e75908490613594565b90915550505b60408051838152602081018390527fd9269f7270bc5664a2191e6eb8966494c9525a450c09c958895c80de0b2d926d910160405180910390a1505060019092019150610b119050565b505050565b5f610eef604051806040016040528060048152602001631493d3d560e21b815250611cdd565b610ef882611d23565b5f5b602063ffffffff82161015610f545763ffffffff81165f90815260066020526040902054610f2790611d23565b63ffffffff81165f90815260066020526040902054839003610f4c5750600192915050565b600101610efa565b505f92915050565b610f956040518060a001604052805f6001600160a01b03168152602001606081526020015f81526020015f81526020015f151581525090565b5f600883604051610fa691906135a7565b90815260408051918290036020908101832060a0840190925281546001600160a01b0316835260018201805491840191610fdf906134bb565b80601f016020809104026020016040519081016040528092919081815260200182805461100b906134bb565b80156110565780601f1061102d57610100808354040283529160200191611056565b820191905f5260205f20905b81548152906001019060200180831161103957829003601f168201915b505050918352505060028201546020808301919091526003830154604083015260049092015460ff161515606090910152810151519091505f036110cd5760405162461bcd60e51b815260206004820152600e60248201526d155cd95c881b9bdd08199bdd5b9960921b6044820152606401610866565b92915050565b50919050565b600c546060906001600160a01b031633146111065760405162461bcd60e51b8152600401610866906135c2565b815184511461114e5760405162461bcd60e51b8152602060048201526014602482015273092dcecc2d8d2c840d2dce0eae840d8cadccee8d60631b6044820152606401610866565b83516001600160401b0381111561116757611167612d2e565b604051908082528060200260200182016040528015611190578160200160208202803683370190505b5090505f5b8451811015611432575f8582815181106111b1576111b1613554565b602002602001015190505f8583815181106111ce576111ce613554565b602002602001015190505f8584815181106111eb576111eb613554565b602002602001015190505f60088460405161120691906135a7565b90815260408051918290036020908101832060a0840190925281546001600160a01b031683526001820180549184019161123f906134bb565b80601f016020809104026020016040519081016040528092919081815260200182805461126b906134bb565b80156112b65780601f1061128d576101008083540402835291602001916112b6565b820191905f5260205f20905b81548152906001019060200180831161129957829003601f168201915b505050918352505060028201546020808301919091526003830154604083015260049092015460ff161515606090910152810151519091505f036113e4576040805160a0810182526001600160a01b038516815260208101869052808201849052600754640100000000900463ffffffff1660608201526001608082015290516008906113449087906135a7565b90815260405160209181900382019020825181546001600160a01b0319166001600160a01b03909116178155908201516001820190611383908261364e565b5060408201516002820155606082015160038201556080909101516004909101805460ff19169115159190911790555f6113bc83611d68565b915050808787815181106113d2576113d2613554565b60200260200101818152505050611422565b60405162461bcd60e51b81526020600482015260136024820152727573657220616c72656164792065786973747360681b6044820152606401610866565b5050600190920191506111959050565b507fd49e35bc83ea71264afd67b2899c23f3dcabd80c76222c3ca16c479473d3824f816040516114629190613234565b60405180910390a19392505050565b600c546001600160a01b0316331461149b5760405162461bcd60e51b8152600401610866906135c2565b600d80546001600160a01b0319166001600160a01b0392909216919091179055565b5f6008836040516114ce91906135a7565b90815260408051918290036020908101832060a0840190925281546001600160a01b0316835260018201805491840191611507906134bb565b80601f0160208091040260200160405190810160405280929190818152602001828054611533906134bb565b801561157e5780601f106115555761010080835404028352916020019161157e565b820191905f5260205f20905b81548152906001019060200180831161156157829003601f168201915b505050918352505060028201546020808301919091526003830154604083015260049092015460ff161515606090910152810151519091505f036113e4576040805160a081018252338152602081018590528082018490525f60608201819052608082015290516008906115f39086906135a7565b90815260405160209181900382019020825181546001600160a01b0319166001600160a01b03909116178155908201516001820190611632908261364e565b5060408201516002820155606082015160038201556080909101516004909101805460ff1916911515919091179055505050565b61166e612b92565b5f82815260046020526040908190208151808301928390529160029082845b81548152602001906001019080831161168d5750505050509050919050565b600c546001600160a01b031633146116d65760405162461bcd60e51b8152600401610866906135c2565b5f6008826040516116e791906135a7565b90815260408051918290036020908101832060a0840190925281546001600160a01b0316835260018201805491840191611720906134bb565b80601f016020809104026020016040519081016040528092919081815260200182805461174c906134bb565b80156117975780601f1061176e57610100808354040283529160200191611797565b820191905f5260205f20905b81548152906001019060200180831161177a57829003601f168201915b505050918352505060028201546020808301919091526003830154604083015260049092015460ff161515606090910152810151519091505f0361180e5760405162461bcd60e51b815260206004820152600e60248201526d155cd95c881b9bdd08199bdd5b9960921b6044820152606401610866565b600160088360405161182091906135a7565b908152604051908190036020018120600401805492151560ff199093169290921790915560075463ffffffff64010000000090910416906008906118659085906135a7565b9081526020016040518091039020600301819055506118a460088360405161188d91906135a7565b908152602001604051809103902060020154611d68565b50507f270ff4b111e5baa49283562af127cc5ea74e9d6c9efd5465578bd9223d5843f0826040516118d5919061370d565b60405180910390a15050565b600c545f9081906001600160a01b0316331461190f5760405162461bcd60e51b8152600401610866906135c2565b61191883611d68565b91509150915091565b604080518082018252838152602081018390529051632b0aac7f60e11b81525f919073__$2504d81e148ed52e54ab9b5ee76910cf06$__9063561558fe9061196d9084906004016132c7565b602060405180830381865af4158015611988573d5f803e3d5ffd5b505050506040513d601f19601f820116820180604052508101906119ac919061371f565b949350505050565b6008836040516119c491906135a7565b9081526040519081900360200190206004015460ff16611a1f5760405162461bcd60e51b8152602060048201526016602482015275155cd95c881b9bdd08185d5d1a195b9d1a58d85d195960521b6044820152606401610866565b336001600160a01b0316600884604051611a3991906135a7565b908152604051908190036020019020546001600160a01b031614611a9f5760405162461bcd60e51b815260206004820152601e60248201527f4f6e6c792075736572732063616e206372656174652070726f706f73616c00006044820152606401610866565b5f825111611aef5760405162461bcd60e51b815260206004820152601b60248201527f4465736372697074696f6e2063616e6e6f7420626520656d70747900000000006044820152606401610866565b6040805160e0810182528381525f60208083018290528284018290526060830182905242608084015260a0830182905260c08301859052600a548252600990529190912081518190611b41908261364e565b506020820151600182015560408201516002820155606082015160038201556080820151600482015560a082015160058201805460ff191691151591909117905560c08201516006820190611b96908261364e565b5050600a546040519081527fc2c021f5d73c63c481d336fbbafec58f694fc45095f00b02d2deb8cca59afe07915060200160405180910390a1600a8054905f611bde8361357c565b9190505550505050565b6060806119185f84611eb6565b5f611c045f8787878787612092565b9695505050505050565b8051602081830181018051600882529282019190930120915280546001820180546001600160a01b039092169291611c45906134bb565b80601f0160208091040260200160405190810160405280929190818152602001828054611c71906134bb565b8015611cbc5780601f10611c9357610100808354040283529160200191611cbc565b820191905f5260205f20905b815481529060010190602001808311611c9f57829003601f168201915b50505050600283015460038401546004909401549293909290915060ff1685565b611d2081604051602401611cf1919061370d565b60408051601f198184030181529190526020810180516001600160e01b031663104c13eb60e21b179052612395565b50565b611d2081604051602401611d3991815260200190565b60408051601f198184030181529190526020810180516001600160e01b031663f5b1bba960e01b179052612395565b5f80640100000000600760049054906101000a900463ffffffff1663ffffffff1610611def5760405162461bcd60e51b815260206004820152603060248201527f4d65726b6c6520747265652069732066756c6c2e204e6f206d6f7265206c656160448201526f1d995cc818d85b88189948185919195960821b6064820152608401610866565b611df95f846123b5565b6007549092505f90602090611e159063ffffffff166001613736565b611e1f919061375a565b6007805463ffffffff191663ffffffff83811691821783555f918252600660205260409091208690558154929350640100000000909204909116906004611e6583613788565b91906101000a81548163ffffffff021916908363ffffffff16021790555050826001600760049054906101000a900463ffffffff16611ea491906137aa565b909563ffffffff909116945092505050565b8154600283015460609182918410611ee157604051630231ec4360e31b815260040160405180910390fd5b806001600160401b03811115611ef957611ef9612d2e565b604051908082528060200260200182016040528015611f22578160200160208202803683370190505b509250806001600160401b03811115611f3d57611f3d612d2e565b604051908082528060200260200182016040528015611f66578160200160208202803683370190505b509150835f5b828160ff161015612087575f82600116905080858360ff1681518110611f9457611f94613554565b60ff928316602091820292909201015281165f03612045576002880154611fbc846001613594565b1015611fff5760ff82165f908152600489016020526040902060010154868360ff1681518110611fee57611fee613554565b60200260200101818152505061207a565b600588015460ff166120245760ff82165f908152600389016020526040902054612030565b6120308260ff1661258a565b868360ff1681518110611fee57611fee613554565b60ff82165f81815260048a016020526040902054875190918891811061206d5761206d613554565b6020026020010181815250505b50600191821c9101611f6c565b5050505b9250929050565b85545f907f30644e72e131a029b85045b68181585d2833e84879b9709143e1f593f000000187106120d65760405163461b9c6d60e11b815260040160405180910390fd5b82811415806120e55750848114155b156121035760405163776891e360e01b815260040160405180910390fd5b865f5b828160ff161015612381577f30644e72e131a029b85045b68181585d2833e84879b9709143e1f593f000000188888360ff1681811061214757612147613554565b905060200201351061216c5760405163461b9c6d60e11b815260040160405180910390fd5b85858260ff1681811061218157612181613554565b905060200201602081019061219691906137c7565b60ff166001141580156121d4575085858260ff168181106121b9576121b9613554565b90506020020160208101906121ce91906137c7565b60ff1615155b156121f25760405163776891e360e01b815260040160405180910390fd5b85858260ff1681811061220757612207613554565b905060200201602081019061221c91906137c7565b60ff165f036122d15773__$2504d81e148ed52e54ab9b5ee76910cf06$__63561558fe60405180604001604052808581526020018b8b8660ff1681811061226557612265613554565b905060200201358152506040518263ffffffff1660e01b815260040161228b91906132c7565b602060405180830381865af41580156122a6573d5f803e3d5ffd5b505050506040513d601f19601f820116820180604052508101906122ca919061371f565b9150612379565b73__$2504d81e148ed52e54ab9b5ee76910cf06$__63561558fe60405180604001604052808b8b8660ff1681811061230b5761230b613554565b905060200201358152602001858152506040518263ffffffff1660e01b815260040161233791906132c7565b602060405180830381865af4158015612352573d5f803e3d5ffd5b505050506040513d601f19601f82011682018060405250810190612376919061371f565b91505b600101612106565b506001890154149150509695505050505050565b80516a636f6e736f6c652e6c6f67602083015f808483855afa5050505050565b81545f907f30644e72e131a029b85045b68181585d2833e84879b9709143e1f593f000000183106123f95760405163461b9c6d60e11b815260040160405180910390fd5b6124048160026138c7565b84600201541061242757604051633b5ccb4360e21b815260040160405180910390fd5b60028401546005850154849060ff165f5b848160ff16101561255e57836001165f036124ae5760405180604001604052808481526020018361247c5760ff83165f90815260038b016020526040902054612488565b6124888360ff1661258a565b905260ff82165f90815260048a01602052604090206124a8916002612bb0565b506124c8565b60ff81165f90815260048901602052604090208390600101555b60ff81165f9081526004808a016020526040918290209151632b0aac7f60e11b815273__$2504d81e148ed52e54ab9b5ee76910cf06$__9263561558fe9261251092016138d2565b602060405180830381865af415801561252b573d5f803e3d5ffd5b505050506040513d601f19601f8201168201806040525081019061254f919061371f565b600194851c9490935001612438565b5060018088018390556002880180545f9061257a908490613594565b9091555091979650505050505050565b5f815f0361259957505f919050565b816001036125c857507f2098f5fb9e239eab3ceac3f27b81e481dc3124d55ffed523a839ee8446b64864919050565b816002036125f757507f1069673dcdb12263df301a6ff584a7ec261a44cb9dc68df067a4774460b1f1e1919050565b8160030361262657507f18f43331537ee2af2e3d758d50f72106467c6eea50371dd528d57eb2b856d238919050565b8160040361265557507f07f9d837cb17b0d36320ffe93ba52345f1b728571a568265caac97559dbc952a919050565b8160050361268457507f2b94cf5e8746b3f5c9631f4c5df32907a699c58c94b2ad4d7b5cec1639183f55919050565b816006036126b357507f2dee93c5a666459646ea7d22cca9e1bcfed71e6951b953611d11dda32ea09d78919050565b816007036126e257507f078295e5a22b84e982cf601eb639597b8b0515a88cb5ac7fa8a4aabe3c87349d919050565b8160080361271157507f2fa5e5f18f6027a6501bec864564472a616b2e274a41211a444cbe3a99f3cc61919050565b8160090361274057507f0e884376d0d8fd21ecb780389e941f66e45e7acce3e228ab3e2156a614fcd747919050565b81600a0361276f57507f1b7201da72494f1e28717ad1a52eb469f95892f957713533de6175e5da190af2919050565b81600b0361279e57507f1f8d8822725e36385200c0b201249819a6e6e1e4650808b5bebc6bface7d7636919050565b81600c036127cd57507f2c5d82f66c914bafb9701589ba8cfcfb6162b0a12acf88a8d0879a0471b5f85a919050565b81600d036127fc57507f14c54148a0940bb820957f5adf3fa1134ef5c4aaa113f4646458f270e0bfbfd0919050565b81600e0361282b57507f190d33b12f986f961e10c0ee44d8b9af11be25588cad89d416118e4bf4ebe80c919050565b81600f0361285a57507f22f98aa9ce704152ac17354914ad73ed1167ae6596af510aa5b3649325e06c92919050565b8160100361288957507f2a7c7c9b6ce5880b9f6f228d72bf6a575a526f29c66ecceef8b753d38bba7323919050565b816011036128b857507f2e8186e558698ec1c67af9c14d463ffc470043c9c2988b954d75dd643f36b992919050565b816012036128e757507f0f57c5571e9a4eab49e2c8cf050dae948aef6ead647392273546249d1c1ff10f919050565b8160130361291657507f1830ee67b5fb554ad5f63d4388800e1cfe78e310697d46e43c9ce36134f72cca919050565b8160140361294557507f2134e76ac5d21aab186c2be1dd8f84ee880a1e46eaf712f9d371b6df22191f3e919050565b8160150361297457507f19df90ec844ebc4ffeebd866f33859b0c051d8c958ee3aa88f8f8df3db91a5b1919050565b816016036129a357507f18cca2a66b5c0787981e69aefd84852d74af0e93ef4912b4648c05f722efe52b919050565b816017036129d257507f2388909415230d1b4d1304d2d54f473a628338f2efad83fadf05644549d2538d919050565b81601803612a0157507f27171fb4a97b6cc0e9e8f543b5294de866a2af2c9c8d0b1d96e673e4529ed540919050565b81601903612a3057507f2ff6650540f629fd5711a0bc74fc0d28dcb230b9392583e5f8d59696dde6ae21919050565b81601a03612a5f57507f120c58f143d491e95902f7f5277778a2e0ad5168f6add75669932630ce611518919050565b81601b03612a8e57507f1f21feb70d3f21b07bf853d5e5db03071ec495a0a565a21da2d665d279483795919050565b81601c03612abd57507f24be905fa71335e14c638cc0f66a8623a826e768068a9e968bb1a1dde18a72d2919050565b81601d03612aec57507f0f8666b62ed17491c50ceadead57d4cd597ef3821d65c328744c74e553dac26d919050565b81601e03612b1b57507f0918d46bf52d98b034413f4a1a1c41594e7a7a3f6ae08cb43d1a2a230e1959ef919050565b81601f03612b4a57507f1bbeb01b4c479ecde76917645e404dfa2e26f90d0afc5a65128513ad375c5ff2919050565b81602003612b7957507f2f68a1c58e257e42a17a6c61dff5551ed560b9922ab119d5ac8e184c9734ead9919050565b60405163d5968e4760e01b815260040160405180910390fd5b60405180604001604052806002906020820280368337509192915050565b8260028101928215612bde579160200282015b82811115612bde578251825591602001919060010190612bc3565b50612bea929150612bee565b5090565b5b80821115612bea575f8155600101612bef565b5f60208284031215612c12575f80fd5b5035919050565b5f5b83811015612c33578181015183820152602001612c1b565b50505f910152565b5f8151808452612c52816020860160208601612c19565b601f01601f19169290920160200192915050565b60e081525f612c7860e083018a612c3b565b88602084015287604084015286606084015285608084015284151560a084015282810360c0840152612caa8185612c3b565b9a9950505050505050505050565b602081525f825160e06020840152612cd4610100840182612c3b565b9050602084015160408401526040840151606084015260608401516080840152608084015160a084015260a0840151151560c084015260c0840151601f198483030160e0850152612d258282612c3b565b95945050505050565b634e487b7160e01b5f52604160045260245ffd5b604051601f8201601f191681016001600160401b0381118282101715612d6a57612d6a612d2e565b604052919050565b5f82601f830112612d81575f80fd5b81356001600160401b03811115612d9a57612d9a612d2e565b612dad601f8201601f1916602001612d42565b818152846020838601011115612dc1575f80fd5b816020850160208301375f918101602001919091529392505050565b5f6001600160401b03821115612df557612df5612d2e565b5060051b60200190565b5f82601f830112612e0e575f80fd5b81356020612e23612e1e83612ddd565b612d42565b8083825260208201915060208460051b870101935086841115612e44575f80fd5b602086015b84811015612e605780358352918301918301612e49565b509695505050505050565b5f8060408385031215612e7c575f80fd5b82356001600160401b0380821115612e92575f80fd5b612e9e86838701612d72565b93506020850135915080821115612eb3575f80fd5b50612ec085828601612dff565b9150509250929050565b5f82601f830112612ed9575f80fd5b81356020612ee9612e1e83612ddd565b82815260059290921b84018101918181019086841115612f07575f80fd5b8286015b84811015612e605780356001600160401b03811115612f28575f80fd5b612f368986838b0101612dff565b845250918301918301612f0b565b5f8060408385031215612f55575f80fd5b82356001600160401b0380821115612f6b575f80fd5b818501915085601f830112612f7e575f80fd5b81356020612f8e612e1e83612ddd565b82815260059290921b84018101918181019089841115612fac575f80fd5b8286015b84811015612fe257803586811115612fc6575f80fd5b612fd48c86838b0101612d72565b845250918301918301612fb0565b5096505086013592505080821115612ff8575f80fd5b50612ec085828601612eca565b5f60208284031215613015575f80fd5b81356001600160401b0381111561302a575f80fd5b6119ac84828501612d72565b602080825282516001600160a01b03168282015282015160a060408301525f9061306360c0840182612c3b565b905060408401516060840152606084015160808401526080840151151560a08401528091505092915050565b80356001600160a01b03811681146130a5575f80fd5b919050565b5f82601f8301126130b9575f80fd5b813560206130c9612e1e83612ddd565b8083825260208201915060208460051b8701019350868411156130ea575f80fd5b602086015b84811015612e60576131008161308f565b83529183019183016130ef565b5f805f6060848603121561311f575f80fd5b83356001600160401b0380821115613135575f80fd5b818601915086601f830112613148575f80fd5b81356020613158612e1e83612ddd565b82815260059290921b8401810191818101908a841115613176575f80fd5b8286015b848110156131ac57803586811115613190575f80fd5b61319e8d86838b0101612d72565b84525091830191830161317a565b50975050870135925050808211156131c2575f80fd5b6131ce878388016130aa565b935060408601359150808211156131e3575f80fd5b506131f086828701612dff565b9150509250925092565b5f815180845260208085019450602084015f5b838110156132295781518752958201959082019060010161320d565b509495945050505050565b602081525f61324660208301846131fa565b9392505050565b5f6020828403121561325d575f80fd5b6132468261308f565b5f8060408385031215613277575f80fd5b50508035926020909101359150565b5f8060408385031215613297575f80fd5b82356001600160401b038111156132ac575f80fd5b6132b885828601612d72565b95602094909401359450505050565b6040810181835f5b60028110156132ee5781518352602092830192909101906001016132cf565b50505092915050565b5f805f60608486031215613309575f80fd5b83356001600160401b038082111561331f575f80fd5b61332b87838801612d72565b94506020860135915080821115613340575f80fd5b61334c87838801612d72565b93506040860135915080821115613361575f80fd5b506131f086828701612d72565b604081525f61338060408301856131fa565b8281036020848101919091528451808352858201928201905f5b818110156133b957845160ff168352938301939183019160010161339a565b5090979650505050505050565b5f8083601f8401126133d6575f80fd5b5081356001600160401b038111156133ec575f80fd5b6020830191508360208260051b850101111561208b575f80fd5b5f805f805f6060868803121561341a575f80fd5b8535945060208601356001600160401b0380821115613437575f80fd5b61344389838a016133c6565b9096509450604088013591508082111561345b575f80fd5b50613468888289016133c6565b969995985093965092949392505050565b6001600160a01b038616815260a0602082018190525f9061349c90830187612c3b565b6040830195909552506060810192909252151560809091015292915050565b600181811c908216806134cf57607f821691505b6020821081036110d357634e487b7160e01b5f52602260045260245ffd5b604081525f6134ff6040830185612c3b565b8281036020848101919091528451808352858201928201905f5b818110156133b957845183529383019391830191600101613519565b5f60208284031215613545575f80fd5b81518015158114613246575f80fd5b634e487b7160e01b5f52603260045260245ffd5b634e487b7160e01b5f52601160045260245ffd5b5f6001820161358d5761358d613568565b5060010190565b808201808211156110cd576110cd613568565b5f82516135b8818460208701612c19565b9190910192915050565b60208082526021908201527f4f6e6c79206f776e65722063616e2063616c6c20746869732066756e6374696f6040820152603760f91b606082015260800190565b601f821115610ec457805f5260205f20601f840160051c810160208510156136285750805b601f840160051c820191505b81811015613647575f8155600101613634565b5050505050565b81516001600160401b0381111561366757613667612d2e565b61367b8161367584546134bb565b84613603565b602080601f8311600181146136ae575f84156136975750858301515b5f19600386901b1c1916600185901b178555613705565b5f85815260208120601f198616915b828110156136dc578886015182559484019460019091019084016136bd565b50858210156136f957878501515f19600388901b60f8161c191681555b505060018460011b0185555b505050505050565b602081525f6132466020830184612c3b565b5f6020828403121561372f575f80fd5b5051919050565b63ffffffff81811683821601908082111561375357613753613568565b5092915050565b5f63ffffffff8084168061377c57634e487b7160e01b5f52601260045260245ffd5b92169190910692915050565b5f63ffffffff8083168181036137a0576137a0613568565b6001019392505050565b63ffffffff82811682821603908082111561375357613753613568565b5f602082840312156137d7575f80fd5b813560ff81168114613246575f80fd5b600181815b8085111561382157815f190482111561380757613807613568565b8085161561381457918102915b93841c93908002906137ec565b509250929050565b5f82613837575060016110cd565b8161384357505f6110cd565b816001811461385957600281146138635761387f565b60019150506110cd565b60ff84111561387457613874613568565b50506001821b6110cd565b5060208310610133831016604e8410600b84101617156138a2575081810a6110cd565b6138ac83836137e7565b805f19048211156138bf576138bf613568565b029392505050565b5f6132468383613829565b6040810181835f5b60028110156132ee5781548352602090920191600191820191016138da56fea2646970667358221220d600e763f35d85f9d1ae29962801847b844dcd4d4ff369cf17b03eb3657470bc64736f6c63430008180033","linkReferences":{"src/libraries/PoseidonT3.sol":{"PoseidonT3":[{"start":254,"length":20},{"start":6942,"length":20},{"start":9216,"length":20},{"start":9388,"length":20},{"start":9925,"length":20}]}}},"methodIdentifiers":{"ROOT_HISTORY_SIZE()":"cd87a3b4","admin()":"f851a440","batchVote(bytes[],bytes32[][])":"1bd62a0e","binaryIMTData()":"9f9a6228","createProof(uint256)":"e4387ec3","createProposal(string,string,bytes)":"b66bfb5f","currentProposalId()":"feac729d","currentRootIndex()":"90eeb02b","getCredentialId(string)":"2cfca6ac","getCurrentRoot()":"8270482d","getVoteStatus(uint256)":"0519bb83","hash(uint256,uint256)":"a78dac0d","insert(uint256)":"90b5561d","isValidRoot(uint256)":"2cdabbce","lastSubtrees(uint256)":"6fc97643","nextIndex()":"fc7e9c6f","nulifierHashes(uint256,uint256)":"5d085577","proposals(uint256)":"013cf08b","registerMultipleUsers(string[],address[],uint256[])":"4706dcb8","registerUser(string)":"704f1b94","requestRegistration(string,uint256)":"67f074ff","roots(uint256)":"c2b40ae4","setVerifier(address)":"5437988d","userData(string)":"fc57a5a7","verifier()":"2b7ac3f3","verifyLeaf(uint256,uint256[],uint8[])":"f20a495c","vote(bytes,bytes32[])":"1257fb7d"},"id":31}