{"abi":[{"type":"constructor","inputs":[],"stateMutability":"nonpayable"},{"type":"function","name":"ROOT_HISTORY_SIZE","inputs":[],"outputs":[{"name":"","type":"uint32","internalType":"uint32"}],"stateMutability":"view"},{"type":"function","name":"admin","inputs":[],"outputs":[{"name":"","type":"address","internalType":"address"}],"stateMutability":"view"},{"type":"function","name":"batchVote","inputs":[{"name":"proofs","type":"bytes[]","internalType":"bytes[]"},{"name":"publicInputs","type":"bytes32[][]","internalType":"bytes32[][]"}],"outputs":[],"stateMutability":"nonpayable"},{"type":"function","name":"binaryIMTData","inputs":[],"outputs":[{"name":"depth","type":"uint256","internalType":"uint256"},{"name":"root","type":"uint256","internalType":"uint256"},{"name":"numberOfLeaves","type":"uint256","internalType":"uint256"},{"name":"useDefaultZeroes","type":"bool","internalType":"bool"}],"stateMutability":"view"},{"type":"function","name":"createProof","inputs":[{"name":"leafIndex","type":"uint256","internalType":"uint256"}],"outputs":[{"name":"proofSiblings","type":"uint256[]","internalType":"uint256[]"},{"name":"proofPathIndices","type":"uint8[]","internalType":"uint8[]"}],"stateMutability":"view"},{"type":"function","name":"createProposal","inputs":[{"name":"username","type":"string","internalType":"string"},{"name":"description","type":"string","internalType":"string"},{"name":"data","type":"bytes","internalType":"bytes"}],"outputs":[],"stateMutability":"nonpayable"},{"type":"function","name":"currentProposalId","inputs":[],"outputs":[{"name":"","type":"uint256","internalType":"uint256"}],"stateMutability":"view"},{"type":"function","name":"currentRootIndex","inputs":[],"outputs":[{"name":"","type":"uint32","internalType":"uint32"}],"stateMutability":"view"},{"type":"function","name":"getCredentialId","inputs":[{"name":"username","type":"string","internalType":"string"}],"outputs":[{"name":"","type":"tuple","internalType":"struct UserInfo","components":[{"name":"userAddress","type":"address","internalType":"address"},{"name":"username","type":"string","internalType":"string"},{"name":"commitment","type":"uint256","internalType":"uint256"},{"name":"commitmentId","type":"uint256","internalType":"uint256"},{"name":"isAuthenticated","type":"bool","internalType":"bool"}]}],"stateMutability":"view"},{"type":"function","name":"getVoteStatus","inputs":[{"name":"proposalId","type":"uint256","internalType":"uint256"}],"outputs":[{"name":"","type":"tuple","internalType":"struct Proposal","components":[{"name":"description","type":"string","internalType":"string"},{"name":"voteCount","type":"uint256","internalType":"uint256"},{"name":"votesFor","type":"uint256","internalType":"uint256"},{"name":"votesAgainst","type":"uint256","internalType":"uint256"},{"name":"createdAt","type":"uint256","internalType":"uint256"},{"name":"isAccepted","type":"bool","internalType":"bool"},{"name":"data","type":"bytes","internalType":"bytes"}]}],"stateMutability":"view"},{"type":"function","name":"hash","inputs":[{"name":"x","type":"uint256","internalType":"uint256"},{"name":"y","type":"uint256","internalType":"uint256"}],"outputs":[{"name":"","type":"uint256","internalType":"uint256"}],"stateMutability":"pure"},{"type":"function","name":"insert","inputs":[{"name":"leaf","type":"uint256","internalType":"uint256"}],"outputs":[{"name":"","type":"uint256","internalType":"uint256"}],"stateMutability":"nonpayable"},{"type":"function","name":"isValidRoot","inputs":[{"name":"root","type":"uint256","internalType":"uint256"}],"outputs":[{"name":"","type":"bool","internalType":"bool"}],"stateMutability":"view"},{"type":"function","name":"lastSubtrees","inputs":[{"name":"index","type":"uint256","internalType":"uint256"}],"outputs":[{"name":"","type":"uint256[2]","internalType":"uint256[2]"}],"stateMutability":"view"},{"type":"function","name":"nextIndex","inputs":[],"outputs":[{"name":"","type":"uint32","internalType":"uint32"}],"stateMutability":"view"},{"type":"function","name":"nulifierHashes","inputs":[{"name":"nulifierHashes","type":"uint256","internalType":"uint256"},{"name":"proposalId","type":"uint256","internalType":"uint256"}],"outputs":[{"name":"","type":"bool","internalType":"bool"}],"stateMutability":"view"},{"type":"function","name":"proposals","inputs":[{"name":"proposalId","type":"uint256","internalType":"uint256"}],"outputs":[{"name":"description","type":"string","internalType":"string"},{"name":"voteCount","type":"uint256","internalType":"uint256"},{"name":"votesFor","type":"uint256","internalType":"uint256"},{"name":"votesAgainst","type":"uint256","internalType":"uint256"},{"name":"createdAt","type":"uint256","internalType":"uint256"},{"name":"isAccepted","type":"bool","internalType":"bool"},{"name":"data","type":"bytes","internalType":"bytes"}],"stateMutability":"view"},{"type":"function","name":"registerMultipleUsers","inputs":[{"name":"usernames","type":"string[]","internalType":"string[]"},{"name":"addresses","type":"address[]","internalType":"address[]"},{"name":"commitments","type":"uint256[]","internalType":"uint256[]"}],"outputs":[],"stateMutability":"nonpayable"},{"type":"function","name":"registerUser","inputs":[{"name":"username","type":"string","internalType":"string"}],"outputs":[],"stateMutability":"nonpayable"},{"type":"function","name":"requestRegistration","inputs":[{"name":"username","type":"string","internalType":"string"},{"name":"commitment","type":"uint256","internalType":"uint256"}],"outputs":[],"stateMutability":"nonpayable"},{"type":"function","name":"roots","inputs":[{"name":"","type":"uint256","internalType":"uint256"}],"outputs":[{"name":"","type":"uint256","internalType":"uint256"}],"stateMutability":"view"},{"type":"function","name":"sanityCheck","inputs":[],"outputs":[{"name":"","type":"string","internalType":"string"}],"stateMutability":"view"},{"type":"function","name":"setVerifier","inputs":[{"name":"verifierAddress","type":"address","internalType":"address"}],"outputs":[],"stateMutability":"nonpayable"},{"type":"function","name":"userData","inputs":[{"name":"username","type":"string","internalType":"string"}],"outputs":[{"name":"userAddress","type":"address","internalType":"address"},{"name":"username","type":"string","internalType":"string"},{"name":"commitment","type":"uint256","internalType":"uint256"},{"name":"commitmentId","type":"uint256","internalType":"uint256"},{"name":"isAuthenticated","type":"bool","internalType":"bool"}],"stateMutability":"view"},{"type":"function","name":"verifier","inputs":[],"outputs":[{"name":"","type":"address","internalType":"contract UltraVerifier"}],"stateMutability":"view"},{"type":"function","name":"verifyLeaf","inputs":[{"name":"leaf","type":"uint256","internalType":"uint256"},{"name":"proofSiblings","type":"uint256[]","internalType":"uint256[]"},{"name":"proofPathIndices","type":"uint8[]","internalType":"uint8[]"}],"outputs":[{"name":"","type":"bool","internalType":"bool"}],"stateMutability":"view"},{"type":"function","name":"vote","inputs":[{"name":"proof","type":"bytes","internalType":"bytes"},{"name":"publicInputs","type":"bytes32[]","internalType":"bytes32[]"}],"outputs":[],"stateMutability":"nonpayable"},{"type":"error","name":"DepthNotSupported","inputs":[]},{"type":"error","name":"LeafIndexOutOfRange","inputs":[]},{"type":"error","name":"TreeIsFull","inputs":[]},{"type":"error","name":"ValueGreaterThanSnarkScalarField","inputs":[]},{"type":"error","name":"WrongDefaultZeroIndex","inputs":[]},{"type":"error","name":"WrongMerkleProofPath","inputs":[]}],"bytecode":{"object":"0x600780546001600160401b031916905560c060405260126080908152711692d7d2d650c81a5cc819195c1b1bde595960721b60a0526008906200004390826200024f565b5034801562000050575f80fd5b506200005f5f60208162000077565b600d80546001600160a01b0319163317905562000365565b7f30644e72e131a029b85045b68181585d2833e84879b9709143e1f593f00000018110620000b85760405163461b9c6d60e11b815260040160405180910390fd5b811580620000c65750602082115b15620000e55760405163362b442760e21b815260040160405180910390fd5b8183555f5b828160ff161015620001a45760ff81165f908152600385016020908152604091829020849055815180830183528481529081018490529051632b0aac7f60e11b815273__$2504d81e148ed52e54ab9b5ee76910cf06$__9163561558fe916200015791906004016200031b565b602060405180830381865af415801562000173573d5f803e3d5ffd5b505050506040513d601f19601f820116820180604052508101906200019991906200034d565b9150600101620000ea565b5060019092019190915550565b634e487b7160e01b5f52604160045260245ffd5b600181811c90821680620001da57607f821691505b602082108103620001f957634e487b7160e01b5f52602260045260245ffd5b50919050565b601f8211156200024a57805f5260205f20601f840160051c81016020851015620002265750805b601f840160051c820191505b8181101562000247575f815560010162000232565b50505b505050565b81516001600160401b038111156200026b576200026b620001b1565b62000283816200027c8454620001c5565b84620001ff565b602080601f831160018114620002b9575f8415620002a15750858301515b5f19600386901b1c1916600185901b17855562000313565b5f85815260208120601f198616915b82811015620002e957888601518255948401946001909101908401620002c8565b50858210156200030757878501515f19600388901b60f8161c191681555b505060018460011b0185555b505050505050565b6040810181835f5b60028110156200034457815183526020928301929091019060010162000323565b50505092915050565b5f602082840312156200035e575f80fd5b5051919050565b61366380620003735f395ff3fe608060405234801561000f575f80fd5b50600436106101a1575f3560e01c80637246de3d116100f3578063cd87a3b411610093578063f851a4401161006e578063f851a44014610439578063fc57a5a71461044c578063fc7e9c6f14610470578063feac729d14610488575f80fd5b8063cd87a3b4146103fd578063e4387ec314610405578063f20a495c14610426575f80fd5b80639f9a6228116100ce5780639f9a62281461037e578063a78dac0d146103b8578063b66bfb5f146103cb578063c2b40ae4146103de575f80fd5b80637246de3d1461032357806390b5561d1461033857806390eeb02b14610359575f80fd5b80632cfca6ac1161015e5780635d085577116101395780635d085577146102b057806367f074ff146102dd5780636fc97643146102f0578063704f1b9414610310575f80fd5b80632cfca6ac1461026a5780634706dcb81461028a5780635437988d1461029d575f80fd5b8063013cf08b146101a55780630519bb83146101d45780631257fb7d146101f45780631bd62a0e146102095780632b7ac3f31461021c5780632cdabbce14610247575b5f80fd5b6101b86101b336600461297f565b610491565b6040516101cb97969594939291906129e3565b60405180910390f35b6101e76101e236600461297f565b6105e2565b6040516101cb9190612a35565b610207610202366004612be8565b610798565b005b610207610217366004612cc1565b610a6c565b600e5461022f906001600160a01b031681565b6040516001600160a01b0390911681526020016101cb565b61025a61025536600461297f565b610e32565b60405190151581526020016101cb565b61027d610278366004612d82565b610e79565b6040516101cb9190612db3565b610207610298366004612e8a565b610ff6565b6102076102ab366004612f77565b6112ea565b61025a6102be366004612f97565b600c60209081525f928352604080842090915290825290205460ff1681565b6102076102eb366004612fb7565b611336565b6103036102fe36600461297f565b6114df565b6040516101cb9190612ff8565b61020761031e366004612d82565b611525565b61032b61171d565b6040516101cb9190613028565b61034b61034636600461297f565b6117a9565b6040519081526020016101cb565b6007546103699063ffffffff1681565b60405163ffffffff90911681526020016101cb565b5f546001546002546005546103969392919060ff1684565b60408051948552602085019390935291830152151560608201526080016101cb565b61034b6103c6366004612f97565b6118c4565b6102076103d936600461303a565b611957565b61034b6103ec36600461297f565b60066020525f908152604090205481565b610369602081565b61041861041336600461297f565b611b55565b6040516101cb9291906130b1565b61025a61043436600461316d565b611b6b565b600d5461022f906001600160a01b031681565b61045f61045a366004612d82565b611b84565b6040516101cb9594939291906131e0565b60075461036990640100000000900463ffffffff1681565b61034b600b5481565b600a6020525f90815260409020805481906104ab90613222565b80601f01602080910402602001604051908101604052809291908181526020018280546104d790613222565b80156105225780601f106104f957610100808354040283529160200191610522565b820191905f5260205f20905b81548152906001019060200180831161050557829003601f168201915b505050505090806001015490806002015490806003015490806004015490806005015f9054906101000a900460ff169080600601805461056190613222565b80601f016020809104026020016040519081016040528092919081815260200182805461058d90613222565b80156105d85780601f106105af576101008083540402835291602001916105d8565b820191905f5260205f20905b8154815290600101906020018083116105bb57829003601f168201915b5050505050905087565b61061f6040518060e00160405280606081526020015f81526020015f81526020015f81526020015f81526020015f15158152602001606081525090565b5f828152600a602052604090819020815160e0810190925280548290829061064690613222565b80601f016020809104026020016040519081016040528092919081815260200182805461067290613222565b80156106bd5780601f10610694576101008083540402835291602001916106bd565b820191905f5260205f20905b8154815290600101906020018083116106a057829003601f168201915b505050918352505060018201546020820152600282015460408201526003820154606082015260048201546080820152600582015460ff16151560a082015260068201805460c09092019161071190613222565b80601f016020809104026020016040519081016040528092919081815260200182805461073d90613222565b80156107885780601f1061075f57610100808354040283529160200191610788565b820191905f5260205f20905b81548152906001019060200180831161076b57829003601f168201915b5050505050815250509050919050565b600e54604051633a94343960e21b81526001600160a01b039091169063ea50d0e4906107ca9085908590600401613254565b602060405180830381865afa1580156107e5573d5f803e3d5ffd5b505050506040513d601f19601f82011682018060405250810190610809919061329c565b61084a5760405162461bcd60e51b815260206004820152600d60248201526c24b73b30b634b210383937b7b360991b60448201526064015b60405180910390fd5b5f815f8151811061085d5761085d6132bb565b60200260200101515f1c90505f8260018151811061087d5761087d6132bb565b60200260200101515f1c90505f8360028151811061089d5761089d6132bb565b60200260200101515f1c90505f846003815181106108bd576108bd6132bb565b60200260200101515f1c90506108d284610e32565b61090d5760405162461bcd60e51b815260206004820152600c60248201526b125b9d985b1a59081c9bdbdd60a21b6044820152606401610841565b5f838152600c6020908152604080832085845290915290205460ff161561096e5760405162461bcd60e51b8152602060048201526015602482015274139d5b1a599a595c88185b1c9958591e481d5cd959605a1b6044820152606401610841565b5f828152600a60205260408120805461098690613222565b9050116109ca5760405162461bcd60e51b8152602060048201526012602482015271141c9bdc1bdcd85b081b9bdd08199bdd5b9960721b6044820152606401610841565b5f838152600c602090815260408083208584528252808320805460ff19166001908117909155600a909252822001805491610a04836132e3565b919050555080600103610a3d575f828152600a60205260408120600201805460019290610a329084906132fb565b90915550610a649050565b5f828152600a60205260408120600301805460019290610a5e9084906132fb565b90915550505b505050505050565b8051825114610ab15760405162461bcd60e51b81526020600482015260116024820152704d69736d61746368656420696e7075747360781b6044820152606401610841565b5f5b8251811015610e2d575f828281518110610acf57610acf6132bb565b60200260200101515f81518110610ae857610ae86132bb565b60200260200101515f1c90505f838381518110610b0757610b076132bb565b6020026020010151600181518110610b2157610b216132bb565b60200260200101515f1c90505f848481518110610b4057610b406132bb565b6020026020010151600281518110610b5a57610b5a6132bb565b60200260200101515f1c90505f858581518110610b7957610b796132bb565b6020026020010151600381518110610b9357610b936132bb565b6020908102919091010151600e5488519192506001600160a01b03169063ea50d0e490899088908110610bc857610bc86132bb565b6020026020010151888881518110610be257610be26132bb565b60200260200101516040518363ffffffff1660e01b8152600401610c07929190613254565b602060405180830381865afa158015610c22573d5f803e3d5ffd5b505050506040513d601f19601f82011682018060405250810190610c46919061329c565b610c825760405162461bcd60e51b815260206004820152600d60248201526c24b73b30b634b210383937b7b360991b6044820152606401610841565b610c8b84610e32565b610cc65760405162461bcd60e51b815260206004820152600c60248201526b125b9d985b1a59081c9bdbdd60a21b6044820152606401610841565b5f838152600c6020908152604080832085845290915290205460ff1615610d275760405162461bcd60e51b8152602060048201526015602482015274139d5b1a599a595c88185b1c9958591e481d5cd959605a1b6044820152606401610841565b5f828152600a602052604081208054610d3f90613222565b905011610d835760405162461bcd60e51b8152602060048201526012602482015271141c9bdc1bdcd85b081b9bdd08199bdd5b9960721b6044820152606401610841565b5f838152600c602090815260408083208584528252808320805460ff19166001908117909155600a909252822001805491610dbd836132e3565b919050555080600103610df6575f828152600a60205260408120600201805460019290610deb9084906132fb565b90915550610e1d9050565b5f828152600a60205260408120600301805460019290610e179084906132fb565b90915550505b505060019092019150610ab39050565b505050565b5f805b602063ffffffff82161015610e715763ffffffff81165f90815260066020526040902054839003610e695750600192915050565b600101610e35565b505f92915050565b610eb26040518060a001604052805f6001600160a01b03168152602001606081526020015f81526020015f81526020015f151581525090565b5f600983604051610ec3919061330e565b90815260408051918290036020908101832060a0840190925281546001600160a01b0316835260018201805491840191610efc90613222565b80601f0160208091040260200160405190810160405280929190818152602001828054610f2890613222565b8015610f735780601f10610f4a57610100808354040283529160200191610f73565b820191905f5260205f20905b815481529060010190602001808311610f5657829003601f168201915b505050918352505060028201546020808301919091526003830154604083015260049092015460ff161515606090910152810151519091505f03610fea5760405162461bcd60e51b815260206004820152600e60248201526d155cd95c881b9bdd08199bdd5b9960921b6044820152606401610841565b92915050565b50919050565b600d546001600160a01b031633146110205760405162461bcd60e51b815260040161084190613329565b80518351146110685760405162461bcd60e51b8152602060048201526014602482015273092dcecc2d8d2c840d2dce0eae840d8cadccee8d60631b6044820152606401610841565b5f5b83518110156112e4575f848281518110611086576110866132bb565b602002602001015190505f8483815181106110a3576110a36132bb565b602002602001015190505f8484815181106110c0576110c06132bb565b602002602001015190505f6009846040516110db919061330e565b90815260408051918290036020908101832060a0840190925281546001600160a01b031683526001820180549184019161111490613222565b80601f016020809104026020016040519081016040528092919081815260200182805461114090613222565b801561118b5780601f106111625761010080835404028352916020019161118b565b820191905f5260205f20905b81548152906001019060200180831161116e57829003601f168201915b505050918352505060028201546020808301919091526003830154604083015260049092015460ff161515606090910152810151519091505f03611296576040805160a0810182526001600160a01b038516815260208101869052808201849052600754640100000000900463ffffffff16606082015260016080820152905160099061121990879061330e565b90815260405160209181900382019020825181546001600160a01b0319166001600160a01b0390911617815590820151600182019061125890826133b5565b5060408201516002820155606082015160038201556080909101516004909101805460ff1916911515919091179055611290826117a9565b506112d4565b60405162461bcd60e51b81526020600482015260136024820152727573657220616c72656164792065786973747360681b6044820152606401610841565b50506001909201915061106a9050565b50505050565b600d546001600160a01b031633146113145760405162461bcd60e51b815260040161084190613329565b600e80546001600160a01b0319166001600160a01b0392909216919091179055565b5f600983604051611347919061330e565b90815260408051918290036020908101832060a0840190925281546001600160a01b031683526001820180549184019161138090613222565b80601f01602080910402602001604051908101604052809291908181526020018280546113ac90613222565b80156113f75780601f106113ce576101008083540402835291602001916113f7565b820191905f5260205f20905b8154815290600101906020018083116113da57829003601f168201915b505050918352505060028201546020808301919091526003830154604083015260049092015460ff161515606090910152810151519091505f03611296576040805160a081018252338152602081018590528082018490525f606082018190526080820152905160099061146c90869061330e565b90815260405160209181900382019020825181546001600160a01b0319166001600160a01b039091161781559082015160018201906114ab90826133b5565b5060408201516002820155606082015160038201556080909101516004909101805460ff1916911515919091179055505050565b6114e761290f565b5f82815260046020526040908190208151808301928390529160029082845b8154815260200190600101908083116115065750505050509050919050565b600d546001600160a01b0316331461154f5760405162461bcd60e51b815260040161084190613329565b5f600982604051611560919061330e565b90815260408051918290036020908101832060a0840190925281546001600160a01b031683526001820180549184019161159990613222565b80601f01602080910402602001604051908101604052809291908181526020018280546115c590613222565b80156116105780601f106115e757610100808354040283529160200191611610565b820191905f5260205f20905b8154815290600101906020018083116115f357829003601f168201915b505050918352505060028201546020808301919091526003830154604083015260049092015460ff161515606090910152810151519091505f036116875760405162461bcd60e51b815260206004820152600e60248201526d155cd95c881b9bdd08199bdd5b9960921b6044820152606401610841565b6001600983604051611699919061330e565b908152604051908190036020018120600401805492151560ff199093169290921790915560075463ffffffff64010000000090910416906009906116de90859061330e565b908152602001604051809103902060030181905550610e2d600983604051611706919061330e565b9081526020016040518091039020600201546117a9565b6008805461172a90613222565b80601f016020809104026020016040519081016040528092919081815260200182805461175690613222565b80156117a15780601f10611778576101008083540402835291602001916117a1565b820191905f5260205f20905b81548152906001019060200180831161178457829003601f168201915b505050505081565b6007545f906401000000009081900463ffffffff16106118245760405162461bcd60e51b815260206004820152603060248201527f4d65726b6c6520747265652069732066756c6c2e204e6f206d6f7265206c656160448201526f1d995cc818d85b88189948185919195960821b6064820152608401610841565b5f61182f5f84611c53565b6007549091505f9060209061184b9063ffffffff166001613470565b6118559190613494565b6007805463ffffffff191663ffffffff83811691821783555f91825260066020526040909120859055815492935064010000000090920490911690600461189b836134c2565b91906101000a81548163ffffffff021916908363ffffffff160217905550508192505050919050565b604080518082018252838152602081018390529051632b0aac7f60e11b81525f919073__$2504d81e148ed52e54ab9b5ee76910cf06$__9063561558fe90611910908490600401612ff8565b602060405180830381865af415801561192b573d5f803e3d5ffd5b505050506040513d601f19601f8201168201806040525081019061194f91906134e4565b949350505050565b600983604051611967919061330e565b9081526040519081900360200190206004015460ff166119c25760405162461bcd60e51b8152602060048201526016602482015275155cd95c881b9bdd08185d5d1a195b9d1a58d85d195960521b6044820152606401610841565b336001600160a01b03166009846040516119dc919061330e565b908152604051908190036020019020546001600160a01b031614611a425760405162461bcd60e51b815260206004820152601e60248201527f4f6e6c792075736572732063616e206372656174652070726f706f73616c00006044820152606401610841565b5f825111611a925760405162461bcd60e51b815260206004820152601b60248201527f4465736372697074696f6e2063616e6e6f7420626520656d70747900000000006044820152606401610841565b6040805160e0810182528381525f60208083018290528284018290526060830182905242608084015260a0830182905260c08301859052600b548252600a90529190912081518190611ae490826133b5565b506020820151600182015560408201516002820155606082015160038201556080820151600482015560a082015160058201805460ff191691151591909117905560c08201516006820190611b3990826133b5565b5050600b805491505f611b4b836132e3565b9190505550505050565b606080611b625f84611e28565b91509150915091565b5f611b7a5f8787878787612004565b9695505050505050565b8051602081830181018051600982529282019190930120915280546001820180546001600160a01b039092169291611bbb90613222565b80601f0160208091040260200160405190810160405280929190818152602001828054611be790613222565b8015611c325780601f10611c0957610100808354040283529160200191611c32565b820191905f5260205f20905b815481529060010190602001808311611c1557829003601f168201915b50505050600283015460038401546004909401549293909290915060ff1685565b81545f907f30644e72e131a029b85045b68181585d2833e84879b9709143e1f593f00000018310611c975760405163461b9c6d60e11b815260040160405180910390fd5b611ca28160026135db565b846002015410611cc557604051633b5ccb4360e21b815260040160405180910390fd5b60028401546005850154849060ff165f5b848160ff161015611dfc57836001165f03611d4c57604051806040016040528084815260200183611d1a5760ff83165f90815260038b016020526040902054611d26565b611d268360ff16612307565b905260ff82165f90815260048a0160205260409020611d4691600261292d565b50611d66565b60ff81165f90815260048901602052604090208390600101555b60ff81165f9081526004808a016020526040918290209151632b0aac7f60e11b815273__$2504d81e148ed52e54ab9b5ee76910cf06$__9263561558fe92611dae92016135e6565b602060405180830381865af4158015611dc9573d5f803e3d5ffd5b505050506040513d601f19601f82011682018060405250810190611ded91906134e4565b600194851c9490935001611cd6565b5060018088018390556002880180545f90611e189084906132fb565b9091555091979650505050505050565b8154600283015460609182918410611e5357604051630231ec4360e31b815260040160405180910390fd5b806001600160401b03811115611e6b57611e6b612aab565b604051908082528060200260200182016040528015611e94578160200160208202803683370190505b509250806001600160401b03811115611eaf57611eaf612aab565b604051908082528060200260200182016040528015611ed8578160200160208202803683370190505b509150835f5b828160ff161015611ff9575f82600116905080858360ff1681518110611f0657611f066132bb565b60ff928316602091820292909201015281165f03611fb7576002880154611f2e8460016132fb565b1015611f715760ff82165f908152600489016020526040902060010154868360ff1681518110611f6057611f606132bb565b602002602001018181525050611fec565b600588015460ff16611f965760ff82165f908152600389016020526040902054611fa2565b611fa28260ff16612307565b868360ff1681518110611f6057611f606132bb565b60ff82165f81815260048a0160205260409020548751909188918110611fdf57611fdf6132bb565b6020026020010181815250505b50600191821c9101611ede565b5050505b9250929050565b85545f907f30644e72e131a029b85045b68181585d2833e84879b9709143e1f593f000000187106120485760405163461b9c6d60e11b815260040160405180910390fd5b82811415806120575750848114155b156120755760405163776891e360e01b815260040160405180910390fd5b865f5b828160ff1610156122f3577f30644e72e131a029b85045b68181585d2833e84879b9709143e1f593f000000188888360ff168181106120b9576120b96132bb565b90506020020135106120de5760405163461b9c6d60e11b815260040160405180910390fd5b85858260ff168181106120f3576120f36132bb565b9050602002016020810190612108919061360d565b60ff16600114158015612146575085858260ff1681811061212b5761212b6132bb565b9050602002016020810190612140919061360d565b60ff1615155b156121645760405163776891e360e01b815260040160405180910390fd5b85858260ff16818110612179576121796132bb565b905060200201602081019061218e919061360d565b60ff165f036122435773__$2504d81e148ed52e54ab9b5ee76910cf06$__63561558fe60405180604001604052808581526020018b8b8660ff168181106121d7576121d76132bb565b905060200201358152506040518263ffffffff1660e01b81526004016121fd9190612ff8565b602060405180830381865af4158015612218573d5f803e3d5ffd5b505050506040513d601f19601f8201168201806040525081019061223c91906134e4565b91506122eb565b73__$2504d81e148ed52e54ab9b5ee76910cf06$__63561558fe60405180604001604052808b8b8660ff1681811061227d5761227d6132bb565b905060200201358152602001858152506040518263ffffffff1660e01b81526004016122a99190612ff8565b602060405180830381865af41580156122c4573d5f803e3d5ffd5b505050506040513d601f19601f820116820180604052508101906122e891906134e4565b91505b600101612078565b506001890154149150509695505050505050565b5f815f0361231657505f919050565b8160010361234557507f2098f5fb9e239eab3ceac3f27b81e481dc3124d55ffed523a839ee8446b64864919050565b8160020361237457507f1069673dcdb12263df301a6ff584a7ec261a44cb9dc68df067a4774460b1f1e1919050565b816003036123a357507f18f43331537ee2af2e3d758d50f72106467c6eea50371dd528d57eb2b856d238919050565b816004036123d257507f07f9d837cb17b0d36320ffe93ba52345f1b728571a568265caac97559dbc952a919050565b8160050361240157507f2b94cf5e8746b3f5c9631f4c5df32907a699c58c94b2ad4d7b5cec1639183f55919050565b8160060361243057507f2dee93c5a666459646ea7d22cca9e1bcfed71e6951b953611d11dda32ea09d78919050565b8160070361245f57507f078295e5a22b84e982cf601eb639597b8b0515a88cb5ac7fa8a4aabe3c87349d919050565b8160080361248e57507f2fa5e5f18f6027a6501bec864564472a616b2e274a41211a444cbe3a99f3cc61919050565b816009036124bd57507f0e884376d0d8fd21ecb780389e941f66e45e7acce3e228ab3e2156a614fcd747919050565b81600a036124ec57507f1b7201da72494f1e28717ad1a52eb469f95892f957713533de6175e5da190af2919050565b81600b0361251b57507f1f8d8822725e36385200c0b201249819a6e6e1e4650808b5bebc6bface7d7636919050565b81600c0361254a57507f2c5d82f66c914bafb9701589ba8cfcfb6162b0a12acf88a8d0879a0471b5f85a919050565b81600d0361257957507f14c54148a0940bb820957f5adf3fa1134ef5c4aaa113f4646458f270e0bfbfd0919050565b81600e036125a857507f190d33b12f986f961e10c0ee44d8b9af11be25588cad89d416118e4bf4ebe80c919050565b81600f036125d757507f22f98aa9ce704152ac17354914ad73ed1167ae6596af510aa5b3649325e06c92919050565b8160100361260657507f2a7c7c9b6ce5880b9f6f228d72bf6a575a526f29c66ecceef8b753d38bba7323919050565b8160110361263557507f2e8186e558698ec1c67af9c14d463ffc470043c9c2988b954d75dd643f36b992919050565b8160120361266457507f0f57c5571e9a4eab49e2c8cf050dae948aef6ead647392273546249d1c1ff10f919050565b8160130361269357507f1830ee67b5fb554ad5f63d4388800e1cfe78e310697d46e43c9ce36134f72cca919050565b816014036126c257507f2134e76ac5d21aab186c2be1dd8f84ee880a1e46eaf712f9d371b6df22191f3e919050565b816015036126f157507f19df90ec844ebc4ffeebd866f33859b0c051d8c958ee3aa88f8f8df3db91a5b1919050565b8160160361272057507f18cca2a66b5c0787981e69aefd84852d74af0e93ef4912b4648c05f722efe52b919050565b8160170361274f57507f2388909415230d1b4d1304d2d54f473a628338f2efad83fadf05644549d2538d919050565b8160180361277e57507f27171fb4a97b6cc0e9e8f543b5294de866a2af2c9c8d0b1d96e673e4529ed540919050565b816019036127ad57507f2ff6650540f629fd5711a0bc74fc0d28dcb230b9392583e5f8d59696dde6ae21919050565b81601a036127dc57507f120c58f143d491e95902f7f5277778a2e0ad5168f6add75669932630ce611518919050565b81601b0361280b57507f1f21feb70d3f21b07bf853d5e5db03071ec495a0a565a21da2d665d279483795919050565b81601c0361283a57507f24be905fa71335e14c638cc0f66a8623a826e768068a9e968bb1a1dde18a72d2919050565b81601d0361286957507f0f8666b62ed17491c50ceadead57d4cd597ef3821d65c328744c74e553dac26d919050565b81601e0361289857507f0918d46bf52d98b034413f4a1a1c41594e7a7a3f6ae08cb43d1a2a230e1959ef919050565b81601f036128c757507f1bbeb01b4c479ecde76917645e404dfa2e26f90d0afc5a65128513ad375c5ff2919050565b816020036128f657507f2f68a1c58e257e42a17a6c61dff5551ed560b9922ab119d5ac8e184c9734ead9919050565b60405163d5968e4760e01b815260040160405180910390fd5b60405180604001604052806002906020820280368337509192915050565b826002810192821561295b579160200282015b8281111561295b578251825591602001919060010190612940565b5061296792915061296b565b5090565b5b80821115612967575f815560010161296c565b5f6020828403121561298f575f80fd5b5035919050565b5f5b838110156129b0578181015183820152602001612998565b50505f910152565b5f81518084526129cf816020860160208601612996565b601f01601f19169290920160200192915050565b60e081525f6129f560e083018a6129b8565b88602084015287604084015286606084015285608084015284151560a084015282810360c0840152612a2781856129b8565b9a9950505050505050505050565b602081525f825160e06020840152612a516101008401826129b8565b9050602084015160408401526040840151606084015260608401516080840152608084015160a084015260a0840151151560c084015260c0840151601f198483030160e0850152612aa282826129b8565b95945050505050565b634e487b7160e01b5f52604160045260245ffd5b604051601f8201601f191681016001600160401b0381118282101715612ae757612ae7612aab565b604052919050565b5f82601f830112612afe575f80fd5b81356001600160401b03811115612b1757612b17612aab565b612b2a601f8201601f1916602001612abf565b818152846020838601011115612b3e575f80fd5b816020850160208301375f918101602001919091529392505050565b5f6001600160401b03821115612b7257612b72612aab565b5060051b60200190565b5f82601f830112612b8b575f80fd5b81356020612ba0612b9b83612b5a565b612abf565b8083825260208201915060208460051b870101935086841115612bc1575f80fd5b602086015b84811015612bdd5780358352918301918301612bc6565b509695505050505050565b5f8060408385031215612bf9575f80fd5b82356001600160401b0380821115612c0f575f80fd5b612c1b86838701612aef565b93506020850135915080821115612c30575f80fd5b50612c3d85828601612b7c565b9150509250929050565b5f82601f830112612c56575f80fd5b81356020612c66612b9b83612b5a565b82815260059290921b84018101918181019086841115612c84575f80fd5b8286015b84811015612bdd5780356001600160401b03811115612ca5575f80fd5b612cb38986838b0101612b7c565b845250918301918301612c88565b5f8060408385031215612cd2575f80fd5b82356001600160401b0380821115612ce8575f80fd5b818501915085601f830112612cfb575f80fd5b81356020612d0b612b9b83612b5a565b82815260059290921b84018101918181019089841115612d29575f80fd5b8286015b84811015612d5f57803586811115612d43575f80fd5b612d518c86838b0101612aef565b845250918301918301612d2d565b5096505086013592505080821115612d75575f80fd5b50612c3d85828601612c47565b5f60208284031215612d92575f80fd5b81356001600160401b03811115612da7575f80fd5b61194f84828501612aef565b602080825282516001600160a01b03168282015282015160a060408301525f90612de060c08401826129b8565b905060408401516060840152606084015160808401526080840151151560a08401528091505092915050565b80356001600160a01b0381168114612e22575f80fd5b919050565b5f82601f830112612e36575f80fd5b81356020612e46612b9b83612b5a565b8083825260208201915060208460051b870101935086841115612e67575f80fd5b602086015b84811015612bdd57612e7d81612e0c565b8352918301918301612e6c565b5f805f60608486031215612e9c575f80fd5b83356001600160401b0380821115612eb2575f80fd5b818601915086601f830112612ec5575f80fd5b81356020612ed5612b9b83612b5a565b82815260059290921b8401810191818101908a841115612ef3575f80fd5b8286015b84811015612f2957803586811115612f0d575f80fd5b612f1b8d86838b0101612aef565b845250918301918301612ef7565b5097505087013592505080821115612f3f575f80fd5b612f4b87838801612e27565b93506040860135915080821115612f60575f80fd5b50612f6d86828701612b7c565b9150509250925092565b5f60208284031215612f87575f80fd5b612f9082612e0c565b9392505050565b5f8060408385031215612fa8575f80fd5b50508035926020909101359150565b5f8060408385031215612fc8575f80fd5b82356001600160401b03811115612fdd575f80fd5b612fe985828601612aef565b95602094909401359450505050565b6040810181835f5b600281101561301f578151835260209283019290910190600101613000565b50505092915050565b602081525f612f9060208301846129b8565b5f805f6060848603121561304c575f80fd5b83356001600160401b0380821115613062575f80fd5b61306e87838801612aef565b94506020860135915080821115613083575f80fd5b61308f87838801612aef565b935060408601359150808211156130a4575f80fd5b50612f6d86828701612aef565b604080825283519082018190525f906020906060840190828701845b828110156130e9578151845292840192908401906001016130cd565b505050838103828501528451808252858301918301905f5b8181101561312057835160ff1683529284019291840191600101613101565b5090979650505050505050565b5f8083601f84011261313d575f80fd5b5081356001600160401b03811115613153575f80fd5b6020830191508360208260051b8501011115611ffd575f80fd5b5f805f805f60608688031215613181575f80fd5b8535945060208601356001600160401b038082111561319e575f80fd5b6131aa89838a0161312d565b909650945060408801359150808211156131c2575f80fd5b506131cf8882890161312d565b969995985093965092949392505050565b6001600160a01b038616815260a0602082018190525f90613203908301876129b8565b6040830195909552506060810192909252151560809091015292915050565b600181811c9082168061323657607f821691505b602082108103610ff057634e487b7160e01b5f52602260045260245ffd5b604081525f61326660408301856129b8565b8281036020848101919091528451808352858201928201905f5b8181101561312057845183529383019391830191600101613280565b5f602082840312156132ac575f80fd5b81518015158114612f90575f80fd5b634e487b7160e01b5f52603260045260245ffd5b634e487b7160e01b5f52601160045260245ffd5b5f600182016132f4576132f46132cf565b5060010190565b80820180821115610fea57610fea6132cf565b5f825161331f818460208701612996565b9190910192915050565b60208082526021908201527f4f6e6c79206f776e65722063616e2063616c6c20746869732066756e6374696f6040820152603760f91b606082015260800190565b601f821115610e2d57805f5260205f20601f840160051c8101602085101561338f5750805b601f840160051c820191505b818110156133ae575f815560010161339b565b5050505050565b81516001600160401b038111156133ce576133ce612aab565b6133e2816133dc8454613222565b8461336a565b602080601f831160018114613415575f84156133fe5750858301515b5f19600386901b1c1916600185901b178555610a64565b5f85815260208120601f198616915b8281101561344357888601518255948401946001909101908401613424565b508582101561346057878501515f19600388901b60f8161c191681555b5050505050600190811b01905550565b63ffffffff81811683821601908082111561348d5761348d6132cf565b5092915050565b5f63ffffffff808416806134b657634e487b7160e01b5f52601260045260245ffd5b92169190910692915050565b5f63ffffffff8083168181036134da576134da6132cf565b6001019392505050565b5f602082840312156134f4575f80fd5b5051919050565b600181815b8085111561353557815f190482111561351b5761351b6132cf565b8085161561352857918102915b93841c9390800290613500565b509250929050565b5f8261354b57506001610fea565b8161355757505f610fea565b816001811461356d576002811461357757613593565b6001915050610fea565b60ff841115613588576135886132cf565b50506001821b610fea565b5060208310610133831016604e8410600b84101617156135b6575081810a610fea565b6135c083836134fb565b805f19048211156135d3576135d36132cf565b029392505050565b5f612f90838361353d565b6040810181835f5b600281101561301f5781548352602090920191600191820191016135ee565b5f6020828403121561361d575f80fd5b813560ff81168114612f90575f80fdfea264697066735822122023502f887a1151a50ff22a89e61f5f30521225d6f1c04f7daf67b069bed2448a64736f6c63430008180033","linkReferences":{"src/libraries/PoseidonT3.sol":{"PoseidonT3":[{"start":302,"length":20},{"start":7259,"length":20},{"start":8445,"length":20},{"start":9484,"length":20},{"start":9656,"length":20}]}}},"methodIdentifiers":{"ROOT_HISTORY_SIZE()":"cd87a3b4","admin()":"f851a440","batchVote(bytes[],bytes32[][])":"1bd62a0e","binaryIMTData()":"9f9a6228","createProof(uint256)":"e4387ec3","createProposal(string,string,bytes)":"b66bfb5f","currentProposalId()":"feac729d","currentRootIndex()":"90eeb02b","getCredentialId(string)":"2cfca6ac","getVoteStatus(uint256)":"0519bb83","hash(uint256,uint256)":"a78dac0d","insert(uint256)":"90b5561d","isValidRoot(uint256)":"2cdabbce","lastSubtrees(uint256)":"6fc97643","nextIndex()":"fc7e9c6f","nulifierHashes(uint256,uint256)":"5d085577","proposals(uint256)":"013cf08b","registerMultipleUsers(string[],address[],uint256[])":"4706dcb8","registerUser(string)":"704f1b94","requestRegistration(string,uint256)":"67f074ff","roots(uint256)":"c2b40ae4","sanityCheck()":"7246de3d","setVerifier(address)":"5437988d","userData(string)":"fc57a5a7","verifier()":"2b7ac3f3","verifyLeaf(uint256,uint256[],uint8[])":"f20a495c","vote(bytes,bytes32[])":"1257fb7d"},"id":30}